{
  "_format": "hh-sol-artifact-1",
  "contractName": "OveraToken",
  "sourceName": "contracts/challenges/OveraToken.sol",
  "abi": [
    {
      "inputs": [
        {
          "internalType": "uint256",
          "name": "initialSupply",
          "type": "uint256"
        }
      ],
      "stateMutability": "nonpayable",
      "type": "constructor"
    },
    {
      "inputs": [
        {
          "internalType": "address",
          "name": "spender",
          "type": "address"
        },
        {
          "internalType": "uint256",
          "name": "allowance",
          "type": "uint256"
        },
        {
          "internalType": "uint256",
          "name": "needed",
          "type": "uint256"
        }
      ],
      "name": "ERC20InsufficientAllowance",
      "type": "error"
    },
    {
      "inputs": [
        {
          "internalType": "address",
          "name": "sender",
          "type": "address"
        },
        {
          "internalType": "uint256",
          "name": "balance",
          "type": "uint256"
        },
        {
          "internalType": "uint256",
          "name": "needed",
          "type": "uint256"
        }
      ],
      "name": "ERC20InsufficientBalance",
      "type": "error"
    },
    {
      "inputs": [
        {
          "internalType": "address",
          "name": "approver",
          "type": "address"
        }
      ],
      "name": "ERC20InvalidApprover",
      "type": "error"
    },
    {
      "inputs": [
        {
          "internalType": "address",
          "name": "receiver",
          "type": "address"
        }
      ],
      "name": "ERC20InvalidReceiver",
      "type": "error"
    },
    {
      "inputs": [
        {
          "internalType": "address",
          "name": "sender",
          "type": "address"
        }
      ],
      "name": "ERC20InvalidSender",
      "type": "error"
    },
    {
      "inputs": [
        {
          "internalType": "address",
          "name": "spender",
          "type": "address"
        }
      ],
      "name": "ERC20InvalidSpender",
      "type": "error"
    },
    {
      "inputs": [
        {
          "internalType": "address",
          "name": "from",
          "type": "address"
        },
        {
          "internalType": "address",
          "name": "spender",
          "type": "address"
        },
        {
          "internalType": "uint256",
          "name": "allowance",
          "type": "uint256"
        },
        {
          "internalType": "uint256",
          "name": "amount",
          "type": "uint256"
        }
      ],
      "name": "InsufficientAllowance",
      "type": "error"
    },
    {
      "inputs": [
        {
          "internalType": "address",
          "name": "account",
          "type": "address"
        },
        {
          "internalType": "uint256",
          "name": "balance",
          "type": "uint256"
        },
        {
          "internalType": "uint256",
          "name": "amount",
          "type": "uint256"
        }
      ],
      "name": "InsufficientBalance",
      "type": "error"
    },
    {
      "inputs": [
        {
          "internalType": "address",
          "name": "owner",
          "type": "address"
        },
        {
          "internalType": "address",
          "name": "spender",
          "type": "address"
        },
        {
          "internalType": "uint256",
          "name": "currentAllowance",
          "type": "uint256"
        }
      ],
      "name": "InvalidApprovalAmount",
      "type": "error"
    },
    {
      "inputs": [
        {
          "internalType": "address",
          "name": "owner",
          "type": "address"
        }
      ],
      "name": "OwnableInvalidOwner",
      "type": "error"
    },
    {
      "inputs": [
        {
          "internalType": "address",
          "name": "account",
          "type": "address"
        }
      ],
      "name": "OwnableUnauthorizedAccount",
      "type": "error"
    },
    {
      "inputs": [],
      "name": "ReentrancyGuardReentrantCall",
      "type": "error"
    },
    {
      "anonymous": false,
      "inputs": [
        {
          "indexed": true,
          "internalType": "address",
          "name": "owner",
          "type": "address"
        },
        {
          "indexed": true,
          "internalType": "address",
          "name": "spender",
          "type": "address"
        },
        {
          "indexed": false,
          "internalType": "uint256",
          "name": "value",
          "type": "uint256"
        }
      ],
      "name": "Approval",
      "type": "event"
    },
    {
      "anonymous": false,
      "inputs": [
        {
          "indexed": true,
          "internalType": "address",
          "name": "previousOwner",
          "type": "address"
        },
        {
          "indexed": true,
          "internalType": "address",
          "name": "newOwner",
          "type": "address"
        }
      ],
      "name": "OwnershipTransferred",
      "type": "event"
    },
    {
      "anonymous": false,
      "inputs": [
        {
          "indexed": true,
          "internalType": "address",
          "name": "from",
          "type": "address"
        },
        {
          "indexed": false,
          "internalType": "uint256",
          "name": "amount",
          "type": "uint256"
        }
      ],
      "name": "TokensBurned",
      "type": "event"
    },
    {
      "anonymous": false,
      "inputs": [
        {
          "indexed": true,
          "internalType": "address",
          "name": "to",
          "type": "address"
        },
        {
          "indexed": false,
          "internalType": "uint256",
          "name": "amount",
          "type": "uint256"
        }
      ],
      "name": "TokensMinted",
      "type": "event"
    },
    {
      "anonymous": false,
      "inputs": [
        {
          "indexed": true,
          "internalType": "address",
          "name": "from",
          "type": "address"
        },
        {
          "indexed": true,
          "internalType": "address",
          "name": "to",
          "type": "address"
        },
        {
          "indexed": false,
          "internalType": "uint256",
          "name": "value",
          "type": "uint256"
        }
      ],
      "name": "Transfer",
      "type": "event"
    },
    {
      "inputs": [
        {
          "internalType": "address",
          "name": "owner",
          "type": "address"
        },
        {
          "internalType": "address",
          "name": "spender",
          "type": "address"
        }
      ],
      "name": "allowance",
      "outputs": [
        {
          "internalType": "uint256",
          "name": "",
          "type": "uint256"
        }
      ],
      "stateMutability": "view",
      "type": "function"
    },
    {
      "inputs": [
        {
          "internalType": "address",
          "name": "spender",
          "type": "address"
        },
        {
          "internalType": "uint256",
          "name": "amount",
          "type": "uint256"
        }
      ],
      "name": "approve",
      "outputs": [
        {
          "internalType": "bool",
          "name": "",
          "type": "bool"
        }
      ],
      "stateMutability": "nonpayable",
      "type": "function"
    },
    {
      "inputs": [
        {
          "internalType": "address",
          "name": "account",
          "type": "address"
        }
      ],
      "name": "balanceOf",
      "outputs": [
        {
          "internalType": "uint256",
          "name": "",
          "type": "uint256"
        }
      ],
      "stateMutability": "view",
      "type": "function"
    },
    {
      "inputs": [
        {
          "internalType": "address",
          "name": "from",
          "type": "address"
        },
        {
          "internalType": "uint256",
          "name": "amount",
          "type": "uint256"
        }
      ],
      "name": "burn",
      "outputs": [],
      "stateMutability": "nonpayable",
      "type": "function"
    },
    {
      "inputs": [],
      "name": "decimals",
      "outputs": [
        {
          "internalType": "uint8",
          "name": "",
          "type": "uint8"
        }
      ],
      "stateMutability": "view",
      "type": "function"
    },
    {
      "inputs": [
        {
          "internalType": "address",
          "name": "account",
          "type": "address"
        }
      ],
      "name": "getBalanceOf",
      "outputs": [
        {
          "internalType": "uint256",
          "name": "",
          "type": "uint256"
        }
      ],
      "stateMutability": "view",
      "type": "function"
    },
    {
      "inputs": [
        {
          "internalType": "address",
          "name": "to",
          "type": "address"
        },
        {
          "internalType": "uint256",
          "name": "amount",
          "type": "uint256"
        }
      ],
      "name": "mint",
      "outputs": [],
      "stateMutability": "nonpayable",
      "type": "function"
    },
    {
      "inputs": [],
      "name": "name",
      "outputs": [
        {
          "internalType": "string",
          "name": "",
          "type": "string"
        }
      ],
      "stateMutability": "view",
      "type": "function"
    },
    {
      "inputs": [],
      "name": "owner",
      "outputs": [
        {
          "internalType": "address",
          "name": "",
          "type": "address"
        }
      ],
      "stateMutability": "view",
      "type": "function"
    },
    {
      "inputs": [],
      "name": "renounceOwnership",
      "outputs": [],
      "stateMutability": "nonpayable",
      "type": "function"
    },
    {
      "inputs": [],
      "name": "symbol",
      "outputs": [
        {
          "internalType": "string",
          "name": "",
          "type": "string"
        }
      ],
      "stateMutability": "view",
      "type": "function"
    },
    {
      "inputs": [],
      "name": "totalSupply",
      "outputs": [
        {
          "internalType": "uint256",
          "name": "",
          "type": "uint256"
        }
      ],
      "stateMutability": "view",
      "type": "function"
    },
    {
      "inputs": [
        {
          "internalType": "address",
          "name": "to",
          "type": "address"
        },
        {
          "internalType": "uint256",
          "name": "amount",
          "type": "uint256"
        }
      ],
      "name": "transfer",
      "outputs": [
        {
          "internalType": "bool",
          "name": "",
          "type": "bool"
        }
      ],
      "stateMutability": "nonpayable",
      "type": "function"
    },
    {
      "inputs": [
        {
          "internalType": "address",
          "name": "from",
          "type": "address"
        },
        {
          "internalType": "address",
          "name": "to",
          "type": "address"
        },
        {
          "internalType": "uint256",
          "name": "amount",
          "type": "uint256"
        }
      ],
      "name": "transferFrom",
      "outputs": [
        {
          "internalType": "bool",
          "name": "",
          "type": "bool"
        }
      ],
      "stateMutability": "nonpayable",
      "type": "function"
    },
    {
      "inputs": [
        {
          "internalType": "address",
          "name": "newOwner",
          "type": "address"
        }
      ],
      "name": "transferOwnership",
      "outputs": [],
      "stateMutability": "nonpayable",
      "type": "function"
    }
  ],
  "bytecode": "0x60806040523480156200001157600080fd5b5060405162001f2c38038062001f2c833981810160405281019062000037919062000535565b336040518060400160405280600b81526020017f4f7665726120546f6b656e0000000000000000000000000000000000000000008152506040518060400160405280600381526020017f4f565200000000000000000000000000000000000000000000000000000000008152508160039081620000b59190620007d7565b508060049081620000c79190620007d7565b505050600073ffffffffffffffffffffffffffffffffffffffff168173ffffffffffffffffffffffffffffffffffffffff16036200013f5760006040517f1e4fbdf700000000000000000000000000000000000000000000000000000000815260040162000136919062000903565b60405180910390fd5b62000150816200017260201b60201c565b5060016006819055506200016b33826200023860201b60201c565b50620009f5565b6000600560009054906101000a900473ffffffffffffffffffffffffffffffffffffffff16905081600560006101000a81548173ffffffffffffffffffffffffffffffffffffffff021916908373ffffffffffffffffffffffffffffffffffffffff1602179055508173ffffffffffffffffffffffffffffffffffffffff168173ffffffffffffffffffffffffffffffffffffffff167f8be0079c531659141344cd1fd0a4f28419497f9722a3daafe3b4186f6b6457e060405160405180910390a35050565b600073ffffffffffffffffffffffffffffffffffffffff168273ffffffffffffffffffffffffffffffffffffffff1603620002ad5760006040517fec442f05000000000000000000000000000000000000000000000000000000008152600401620002a4919062000903565b60405180910390fd5b620002c160008383620002c560201b60201c565b5050565b600073ffffffffffffffffffffffffffffffffffffffff168373ffffffffffffffffffffffffffffffffffffffff16036200031b5780600260008282546200030e91906200094f565b92505081905550620003f1565b60008060008573ffffffffffffffffffffffffffffffffffffffff1673ffffffffffffffffffffffffffffffffffffffff16815260200190815260200160002054905081811015620003aa578381836040517fe450d38c000000000000000000000000000000000000000000000000000000008152600401620003a1939291906200099b565b60405180910390fd5b8181036000808673ffffffffffffffffffffffffffffffffffffffff1673ffffffffffffffffffffffffffffffffffffffff16815260200190815260200160002081905550505b600073ffffffffffffffffffffffffffffffffffffffff168273ffffffffffffffffffffffffffffffffffffffff16036200043c578060026000828254039250508190555062000489565b806000808473ffffffffffffffffffffffffffffffffffffffff1673ffffffffffffffffffffffffffffffffffffffff168152602001908152602001600020600082825401925050819055505b8173ffffffffffffffffffffffffffffffffffffffff168373ffffffffffffffffffffffffffffffffffffffff167fddf252ad1be2c89b69c2b068fc378daa952ba7f163c4a11628f55a4df523b3ef83604051620004e89190620009d8565b60405180910390a3505050565b600080fd5b6000819050919050565b6200050f81620004fa565b81146200051b57600080fd5b50565b6000815190506200052f8162000504565b92915050565b6000602082840312156200054e576200054d620004f5565b5b60006200055e848285016200051e565b91505092915050565b600081519050919050565b7f4e487b7100000000000000000000000000000000000000000000000000000000600052604160045260246000fd5b7f4e487b7100000000000000000000000000000000000000000000000000000000600052602260045260246000fd5b60006002820490506001821680620005e957607f821691505b602082108103620005ff57620005fe620005a1565b5b50919050565b60008190508160005260206000209050919050565b60006020601f8301049050919050565b600082821b905092915050565b600060088302620006697fffffffffffffffffffffffffffffffffffffffffffffffffffffffffffffffff826200062a565b6200067586836200062a565b95508019841693508086168417925050509392505050565b6000819050919050565b6000620006b8620006b2620006ac84620004fa565b6200068d565b620004fa565b9050919050565b6000819050919050565b620006d48362000697565b620006ec620006e382620006bf565b84845462000637565b825550505050565b600090565b62000703620006f4565b62000710818484620006c9565b505050565b5b8181101562000738576200072c600082620006f9565b60018101905062000716565b5050565b601f8211156200078757620007518162000605565b6200075c846200061a565b810160208510156200076c578190505b620007846200077b856200061a565b83018262000715565b50505b505050565b600082821c905092915050565b6000620007ac600019846008026200078c565b1980831691505092915050565b6000620007c7838362000799565b9150826002028217905092915050565b620007e28262000567565b67ffffffffffffffff811115620007fe57620007fd62000572565b5b6200080a8254620005d0565b620008178282856200073c565b600060209050601f8311600181146200084f57600084156200083a578287015190505b620008468582620007b9565b865550620008b6565b601f1984166200085f8662000605565b60005b82811015620008895784890151825560018201915060208501945060208101905062000862565b86831015620008a95784890151620008a5601f89168262000799565b8355505b6001600288020188555050505b505050505050565b600073ffffffffffffffffffffffffffffffffffffffff82169050919050565b6000620008eb82620008be565b9050919050565b620008fd81620008de565b82525050565b60006020820190506200091a6000830184620008f2565b92915050565b7f4e487b7100000000000000000000000000000000000000000000000000000000600052601160045260246000fd5b60006200095c82620004fa565b91506200096983620004fa565b925082820190508082111562000984576200098362000920565b5b92915050565b6200099581620004fa565b82525050565b6000606082019050620009b26000830186620008f2565b620009c160208301856200098a565b620009d060408301846200098a565b949350505050565b6000602082019050620009ef60008301846200098a565b92915050565b6115278062000a056000396000f3fe608060405234801561001057600080fd5b50600436106100f55760003560e01c8063715018a6116100975780639dc29fac116100665780639dc29fac14610276578063a9059cbb14610292578063dd62ed3e146102c2578063f2fde38b146102f2576100f5565b8063715018a6146102005780638da5cb5b1461020a57806395d89b41146102285780639b96eece14610246576100f5565b806323b872dd116100d357806323b872dd14610166578063313ce5671461019657806340c10f19146101b457806370a08231146101d0576100f5565b806306fdde03146100fa578063095ea7b31461011857806318160ddd14610148575b600080fd5b61010261030e565b60405161010f91906110cb565b60405180910390f35b610132600480360381019061012d9190611186565b6103a0565b60405161013f91906111e1565b60405180910390f35b61015061041e565b60405161015d919061120b565b60405180910390f35b610180600480360381019061017b9190611226565b610428565b60405161018d91906111e1565b60405180910390f35b61019e6104af565b6040516101ab9190611295565b60405180910390f35b6101ce60048036038101906101c99190611186565b6104b8565b005b6101ea60048036038101906101e591906112b0565b61051c565b6040516101f7919061120b565b60405180910390f35b610208610564565b005b610212610578565b60405161021f91906112ec565b60405180910390f35b6102306105a2565b60405161023d91906110cb565b60405180910390f35b610260600480360381019061025b91906112b0565b610634565b60405161026d919061120b565b60405180910390f35b610290600480360381019061028b9190611186565b610646565b005b6102ac60048036038101906102a79190611186565b610713565b6040516102b991906111e1565b60405180910390f35b6102dc60048036038101906102d79190611307565b610783565b6040516102e9919061120b565b60405180910390f35b61030c600480360381019061030791906112b0565b61080a565b005b60606003805461031d90611376565b80601f016020809104026020016040519081016040528092919081815260200182805461034990611376565b80156103965780601f1061036b57610100808354040283529160200191610396565b820191906000526020600020905b81548152906001019060200180831161037957829003601f168201915b5050505050905090565b600080821180156103ba575060006103b83385610783565b115b156104095733836103cb3386610783565b6040517f2e6b74c2000000000000000000000000000000000000000000000000000000008152600401610400939291906113a7565b60405180910390fd5b610414338484610890565b6001905092915050565b6000600254905090565b6000806104358533610783565b90508281101561048257843382856040517f91beda2400000000000000000000000000000000000000000000000000000000815260040161047994939291906113de565b60405180910390fd5b61048d8585856108a2565b6104a38533858461049e9190611452565b610890565b60019150509392505050565b60006012905090565b6104c0610996565b6104ca8282610a1d565b8173ffffffffffffffffffffffffffffffffffffffff167f3f2c9d57c068687834f0de942a9babb9e5acab57d516d3480a3c16ee165a427382604051610510919061120b565b60405180910390a25050565b60008060008373ffffffffffffffffffffffffffffffffffffffff1673ffffffffffffffffffffffffffffffffffffffff168152602001908152602001600020549050919050565b61056c610996565b6105766000610a9f565b565b6000600560009054906101000a900473ffffffffffffffffffffffffffffffffffffffff16905090565b6060600480546105b190611376565b80601f01602080910402602001604051908101604052809291908181526020018280546105dd90611376565b801561062a5780601f106105ff5761010080835404028352916020019161062a565b820191906000526020600020905b81548152906001019060200180831161060d57829003601f168201915b5050505050905090565b600061063f8261051c565b9050919050565b61064e610996565b610656610b65565b806106608361051c565b10156106af57816106708361051c565b826040517fdb42144d0000000000000000000000000000000000000000000000000000000081526004016106a693929190611486565b60405180910390fd5b6106b98282610bab565b8173ffffffffffffffffffffffffffffffffffffffff167ffd38818f5291bf0bb3a2a48aadc06ba8757865d1dabd804585338aab3009dcb6826040516106ff919061120b565b60405180910390a261070f610c2d565b5050565b60008161071f3361051c565b101561076e573361072f3361051c565b836040517fdb42144d00000000000000000000000000000000000000000000000000000000815260040161076593929190611486565b60405180910390fd5b6107793384846108a2565b6001905092915050565b6000600160008473ffffffffffffffffffffffffffffffffffffffff1673ffffffffffffffffffffffffffffffffffffffff16815260200190815260200160002060008373ffffffffffffffffffffffffffffffffffffffff1673ffffffffffffffffffffffffffffffffffffffff16815260200190815260200160002054905092915050565b610812610996565b600073ffffffffffffffffffffffffffffffffffffffff168173ffffffffffffffffffffffffffffffffffffffff16036108845760006040517f1e4fbdf700000000000000000000000000000000000000000000000000000000815260040161087b91906112ec565b60405180910390fd5b61088d81610a9f565b50565b61089d8383836001610c37565b505050565b600073ffffffffffffffffffffffffffffffffffffffff168373ffffffffffffffffffffffffffffffffffffffff16036109145760006040517f96c6fd1e00000000000000000000000000000000000000000000000000000000815260040161090b91906112ec565b60405180910390fd5b600073ffffffffffffffffffffffffffffffffffffffff168273ffffffffffffffffffffffffffffffffffffffff16036109865760006040517fec442f0500000000000000000000000000000000000000000000000000000000815260040161097d91906112ec565b60405180910390fd5b610991838383610e0e565b505050565b61099e611033565b73ffffffffffffffffffffffffffffffffffffffff166109bc610578565b73ffffffffffffffffffffffffffffffffffffffff1614610a1b576109df611033565b6040517f118cdaa7000000000000000000000000000000000000000000000000000000008152600401610a1291906112ec565b60405180910390fd5b565b600073ffffffffffffffffffffffffffffffffffffffff168273ffffffffffffffffffffffffffffffffffffffff1603610a8f5760006040517fec442f05000000000000000000000000000000000000000000000000000000008152600401610a8691906112ec565b60405180910390fd5b610a9b60008383610e0e565b5050565b6000600560009054906101000a900473ffffffffffffffffffffffffffffffffffffffff16905081600560006101000a81548173ffffffffffffffffffffffffffffffffffffffff021916908373ffffffffffffffffffffffffffffffffffffffff1602179055508173ffffffffffffffffffffffffffffffffffffffff168173ffffffffffffffffffffffffffffffffffffffff167f8be0079c531659141344cd1fd0a4f28419497f9722a3daafe3b4186f6b6457e060405160405180910390a35050565b600260065403610ba1576040517f3ee5aeb500000000000000000000000000000000000000000000000000000000815260040160405180910390fd5b6002600681905550565b600073ffffffffffffffffffffffffffffffffffffffff168273ffffffffffffffffffffffffffffffffffffffff1603610c1d5760006040517f96c6fd1e000000000000000000000000000000000000000000000000000000008152600401610c1491906112ec565b60405180910390fd5b610c2982600083610e0e565b5050565b6001600681905550565b600073ffffffffffffffffffffffffffffffffffffffff168473ffffffffffffffffffffffffffffffffffffffff1603610ca95760006040517fe602df05000000000000000000000000000000000000000000000000000000008152600401610ca091906112ec565b60405180910390fd5b600073ffffffffffffffffffffffffffffffffffffffff168373ffffffffffffffffffffffffffffffffffffffff1603610d1b5760006040517f94280d62000000000000000000000000000000000000000000000000000000008152600401610d1291906112ec565b60405180910390fd5b81600160008673ffffffffffffffffffffffffffffffffffffffff1673ffffffffffffffffffffffffffffffffffffffff16815260200190815260200160002060008573ffffffffffffffffffffffffffffffffffffffff1673ffffffffffffffffffffffffffffffffffffffff168152602001908152602001600020819055508015610e08578273ffffffffffffffffffffffffffffffffffffffff168473ffffffffffffffffffffffffffffffffffffffff167f8c5be1e5ebec7d5bd14f71427d1e84f3dd0314c0f7b2291e5b200ac8c7c3b92584604051610dff919061120b565b60405180910390a35b50505050565b600073ffffffffffffffffffffffffffffffffffffffff168373ffffffffffffffffffffffffffffffffffffffff1603610e60578060026000828254610e5491906114bd565b92505081905550610f33565b60008060008573ffffffffffffffffffffffffffffffffffffffff1673ffffffffffffffffffffffffffffffffffffffff16815260200190815260200160002054905081811015610eec578381836040517fe450d38c000000000000000000000000000000000000000000000000000000008152600401610ee393929190611486565b60405180910390fd5b8181036000808673ffffffffffffffffffffffffffffffffffffffff1673ffffffffffffffffffffffffffffffffffffffff16815260200190815260200160002081905550505b600073ffffffffffffffffffffffffffffffffffffffff168273ffffffffffffffffffffffffffffffffffffffff1603610f7c5780600260008282540392505081905550610fc9565b806000808473ffffffffffffffffffffffffffffffffffffffff1673ffffffffffffffffffffffffffffffffffffffff168152602001908152602001600020600082825401925050819055505b8173ffffffffffffffffffffffffffffffffffffffff168373ffffffffffffffffffffffffffffffffffffffff167fddf252ad1be2c89b69c2b068fc378daa952ba7f163c4a11628f55a4df523b3ef83604051611026919061120b565b60405180910390a3505050565b600033905090565b600081519050919050565b600082825260208201905092915050565b60005b8381101561107557808201518184015260208101905061105a565b60008484015250505050565b6000601f19601f8301169050919050565b600061109d8261103b565b6110a78185611046565b93506110b7818560208601611057565b6110c081611081565b840191505092915050565b600060208201905081810360008301526110e58184611092565b905092915050565b600080fd5b600073ffffffffffffffffffffffffffffffffffffffff82169050919050565b600061111d826110f2565b9050919050565b61112d81611112565b811461113857600080fd5b50565b60008135905061114a81611124565b92915050565b6000819050919050565b61116381611150565b811461116e57600080fd5b50565b6000813590506111808161115a565b92915050565b6000806040838503121561119d5761119c6110ed565b5b60006111ab8582860161113b565b92505060206111bc85828601611171565b9150509250929050565b60008115159050919050565b6111db816111c6565b82525050565b60006020820190506111f660008301846111d2565b92915050565b61120581611150565b82525050565b600060208201905061122060008301846111fc565b92915050565b60008060006060848603121561123f5761123e6110ed565b5b600061124d8682870161113b565b935050602061125e8682870161113b565b925050604061126f86828701611171565b9150509250925092565b600060ff82169050919050565b61128f81611279565b82525050565b60006020820190506112aa6000830184611286565b92915050565b6000602082840312156112c6576112c56110ed565b5b60006112d48482850161113b565b91505092915050565b6112e681611112565b82525050565b600060208201905061130160008301846112dd565b92915050565b6000806040838503121561131e5761131d6110ed565b5b600061132c8582860161113b565b925050602061133d8582860161113b565b9150509250929050565b7f4e487b7100000000000000000000000000000000000000000000000000000000600052602260045260246000fd5b6000600282049050600182168061138e57607f821691505b6020821081036113a1576113a0611347565b5b50919050565b60006060820190506113bc60008301866112dd565b6113c960208301856112dd565b6113d660408301846111fc565b949350505050565b60006080820190506113f360008301876112dd565b61140060208301866112dd565b61140d60408301856111fc565b61141a60608301846111fc565b95945050505050565b7f4e487b7100000000000000000000000000000000000000000000000000000000600052601160045260246000fd5b600061145d82611150565b915061146883611150565b92508282039050818111156114805761147f611423565b5b92915050565b600060608201905061149b60008301866112dd565b6114a860208301856111fc565b6114b560408301846111fc565b949350505050565b60006114c882611150565b91506114d383611150565b92508282019050808211156114eb576114ea611423565b5b9291505056fea2646970667358221220af2969a0d10ed86b76d30d8d41b0a8d92846f9aad4bf7a493c7852a953c1da2e64736f6c63430008180033",
  "linkReferences": {},
  "deployedLinkReferences": {}
}