{
  "_format": "hh-sol-artifact-1",
  "contractName": "ProposalContract",
  "sourceName": "contracts/Proposals.sol",
  "abi": [
    {
      "inputs": [],
      "stateMutability": "nonpayable",
      "type": "constructor"
    },
    {
      "anonymous": false,
      "inputs": [
        {
          "indexed": true,
          "internalType": "uint256",
          "name": "proposalId",
          "type": "uint256"
        },
        {
          "indexed": false,
          "internalType": "string",
          "name": "description",
          "type": "string"
        },
        {
          "indexed": false,
          "internalType": "address",
          "name": "recipient",
          "type": "address"
        },
        {
          "indexed": false,
          "internalType": "uint256",
          "name": "amount",
          "type": "uint256"
        },
        {
          "indexed": false,
          "internalType": "uint256",
          "name": "votingDeadline",
          "type": "uint256"
        },
        {
          "indexed": false,
          "internalType": "uint256",
          "name": "minVotesToPass",
          "type": "uint256"
        }
      ],
      "name": "ProposalCreated",
      "type": "event"
    },
    {
      "anonymous": false,
      "inputs": [
        {
          "indexed": true,
          "internalType": "uint256",
          "name": "proposalId",
          "type": "uint256"
        }
      ],
      "name": "ProposalExecuted",
      "type": "event"
    },
    {
      "anonymous": false,
      "inputs": [
        {
          "indexed": true,
          "internalType": "uint256",
          "name": "proposalId",
          "type": "uint256"
        },
        {
          "indexed": false,
          "internalType": "address",
          "name": "voter",
          "type": "address"
        }
      ],
      "name": "Voted",
      "type": "event"
    },
    {
      "inputs": [
        {
          "internalType": "string",
          "name": "_description",
          "type": "string"
        },
        {
          "internalType": "address payable",
          "name": "_recipient",
          "type": "address"
        },
        {
          "internalType": "uint256",
          "name": "_amount",
          "type": "uint256"
        },
        {
          "internalType": "uint256",
          "name": "_votingPeriod",
          "type": "uint256"
        },
        {
          "internalType": "uint256",
          "name": "_minVotesToPass",
          "type": "uint256"
        }
      ],
      "name": "createProposal",
      "outputs": [],
      "stateMutability": "nonpayable",
      "type": "function"
    },
    {
      "inputs": [
        {
          "internalType": "uint256",
          "name": "_proposalId",
          "type": "uint256"
        }
      ],
      "name": "executeProposal",
      "outputs": [],
      "stateMutability": "nonpayable",
      "type": "function"
    },
    {
      "inputs": [
        {
          "internalType": "address",
          "name": "",
          "type": "address"
        },
        {
          "internalType": "uint256",
          "name": "",
          "type": "uint256"
        }
      ],
      "name": "hasVoted",
      "outputs": [
        {
          "internalType": "bool",
          "name": "",
          "type": "bool"
        }
      ],
      "stateMutability": "view",
      "type": "function"
    },
    {
      "inputs": [],
      "name": "proposalCount",
      "outputs": [
        {
          "internalType": "uint256",
          "name": "",
          "type": "uint256"
        }
      ],
      "stateMutability": "view",
      "type": "function"
    },
    {
      "inputs": [
        {
          "internalType": "uint256",
          "name": "",
          "type": "uint256"
        }
      ],
      "name": "proposals",
      "outputs": [
        {
          "internalType": "string",
          "name": "description",
          "type": "string"
        },
        {
          "internalType": "address payable",
          "name": "recipient",
          "type": "address"
        },
        {
          "internalType": "uint256",
          "name": "amount",
          "type": "uint256"
        },
        {
          "internalType": "uint256",
          "name": "voteCount",
          "type": "uint256"
        },
        {
          "internalType": "uint256",
          "name": "votingDeadline",
          "type": "uint256"
        },
        {
          "internalType": "uint256",
          "name": "minVotesToPass",
          "type": "uint256"
        },
        {
          "internalType": "bool",
          "name": "executed",
          "type": "bool"
        }
      ],
      "stateMutability": "view",
      "type": "function"
    },
    {
      "inputs": [
        {
          "internalType": "uint256",
          "name": "_proposalId",
          "type": "uint256"
        }
      ],
      "name": "vote",
      "outputs": [],
      "stateMutability": "nonpayable",
      "type": "function"
    },
    {
      "stateMutability": "payable",
      "type": "receive"
    }
  ],
  "bytecode": "0x608060405234801561001057600080fd5b50600160028190555061173b806100286000396000f3fe6080604052600436106100595760003560e01c80630121b93f14610065578063013cf08b1461008e5780630d61b519146100d157806342545825146100fa5780638f380d2d14610137578063da35c6641461016057610060565b3661006057005b600080fd5b34801561007157600080fd5b5061008c600480360381019061008791906109af565b61018b565b005b34801561009a57600080fd5b506100b560048036038101906100b091906109af565b61039f565b6040516100c89796959493929190610ad7565b60405180910390f35b3480156100dd57600080fd5b506100f860048036038101906100f391906109af565b610496565b005b34801561010657600080fd5b50610121600480360381019061011c9190610b8b565b6106e3565b60405161012e9190610bcb565b60405180910390f35b34801561014357600080fd5b5061015e60048036038101906101599190610d47565b610712565b005b34801561016c57600080fd5b5061017561095f565b6040516101829190610dde565b60405180910390f35b60008111801561019c575060025481105b6101db576040517f08c379a00000000000000000000000000000000000000000000000000000000081526004016101d290610e45565b60405180910390fd5b600160003373ffffffffffffffffffffffffffffffffffffffff1673ffffffffffffffffffffffffffffffffffffffff168152602001908152602001600020600082815260200190815260200160002060009054906101000a900460ff1615610279576040517f08c379a000000000000000000000000000000000000000000000000000000000815260040161027090610eb1565b60405180910390fd5b600080828152602001908152602001600020600401544211156102d1576040517f08c379a00000000000000000000000000000000000000000000000000000000081526004016102c890610f1d565b60405180910390fd5b60008082815260200190815260200160002060030160008154809291906102f790610f6c565b919050555060018060003373ffffffffffffffffffffffffffffffffffffffff1673ffffffffffffffffffffffffffffffffffffffff168152602001908152602001600020600083815260200190815260200160002060006101000a81548160ff021916908315150217905550807f030b0f8dcd86a031eddb071f91882edeac8173663ba775713b677b42b51be44b336040516103949190610fc3565b60405180910390a250565b60006020528060005260406000206000915090508060000180546103c29061100d565b80601f01602080910402602001604051908101604052809291908181526020018280546103ee9061100d565b801561043b5780601f106104105761010080835404028352916020019161043b565b820191906000526020600020905b81548152906001019060200180831161041e57829003601f168201915b5050505050908060010160009054906101000a900473ffffffffffffffffffffffffffffffffffffffff16908060020154908060030154908060040154908060050154908060060160009054906101000a900460ff16905087565b6000811180156104a7575060025481105b6104e6576040517f08c379a00000000000000000000000000000000000000000000000000000000081526004016104dd90610e45565b60405180910390fd5b6000806000838152602001908152602001600020905080600401544211610542576040517f08c379a00000000000000000000000000000000000000000000000000000000081526004016105399061108a565b60405180910390fd5b8060060160009054906101000a900460ff1615610594576040517f08c379a000000000000000000000000000000000000000000000000000000000815260040161058b9061111c565b60405180910390fd5b8060050154816003015410156105df576040517f08c379a00000000000000000000000000000000000000000000000000000000081526004016105d690611188565b60405180910390fd5b8060020154471015610626576040517f08c379a000000000000000000000000000000000000000000000000000000000815260040161061d906111f4565b60405180910390fd5b60018160060160006101000a81548160ff0219169083151502179055508060010160009054906101000a900473ffffffffffffffffffffffffffffffffffffffff1673ffffffffffffffffffffffffffffffffffffffff166108fc82600201549081150290604051600060405180830381858888f193505050501580156106b1573d6000803e3d6000fd5b50817f712ae1383f79ac853f8d882153778e0260ef8f03b504e2866e0593e04d2b291f60405160405180910390a25050565b60016020528160005260406000206020528060005260406000206000915091509054906101000a900460ff1681565b60008311610755576040517f08c379a000000000000000000000000000000000000000000000000000000000815260040161074c90611260565b60405180910390fd5b60008211610798576040517f08c379a000000000000000000000000000000000000000000000000000000000815260040161078f906112f2565b60405180910390fd5b600081116107db576040517f08c379a00000000000000000000000000000000000000000000000000000000081526004016107d290611384565b60405180910390fd5b600060025490506040518060e001604052808781526020018673ffffffffffffffffffffffffffffffffffffffff16815260200185815260200160008152602001844261082891906113a4565b81526020018381526020016000151581525060008083815260200190815260200160002060008201518160000190816108619190611584565b5060208201518160010160006101000a81548173ffffffffffffffffffffffffffffffffffffffff021916908373ffffffffffffffffffffffffffffffffffffffff16021790555060408201518160020155606082015181600301556080820151816004015560a0820151816005015560c08201518160060160006101000a81548160ff021916908315150217905550905050807f28528fa183090d38f4c35574bb13fb455a547bda31d9bc9520957c9558f52f8e878787874261092591906113a4565b876040516109379594939291906116ab565b60405180910390a26002600081548092919061095290610f6c565b9190505550505050505050565b60025481565b6000604051905090565b600080fd5b600080fd5b6000819050919050565b61098c81610979565b811461099757600080fd5b50565b6000813590506109a981610983565b92915050565b6000602082840312156109c5576109c461096f565b5b60006109d38482850161099a565b91505092915050565b600081519050919050565b600082825260208201905092915050565b60005b83811015610a165780820151818401526020810190506109fb565b60008484015250505050565b6000601f19601f8301169050919050565b6000610a3e826109dc565b610a4881856109e7565b9350610a588185602086016109f8565b610a6181610a22565b840191505092915050565b600073ffffffffffffffffffffffffffffffffffffffff82169050919050565b6000610a9782610a6c565b9050919050565b610aa781610a8c565b82525050565b610ab681610979565b82525050565b60008115159050919050565b610ad181610abc565b82525050565b600060e0820190508181036000830152610af1818a610a33565b9050610b006020830189610a9e565b610b0d6040830188610aad565b610b1a6060830187610aad565b610b276080830186610aad565b610b3460a0830185610aad565b610b4160c0830184610ac8565b98975050505050505050565b6000610b5882610a6c565b9050919050565b610b6881610b4d565b8114610b7357600080fd5b50565b600081359050610b8581610b5f565b92915050565b60008060408385031215610ba257610ba161096f565b5b6000610bb085828601610b76565b9250506020610bc18582860161099a565b9150509250929050565b6000602082019050610be06000830184610ac8565b92915050565b600080fd5b600080fd5b7f4e487b7100000000000000000000000000000000000000000000000000000000600052604160045260246000fd5b610c2882610a22565b810181811067ffffffffffffffff82111715610c4757610c46610bf0565b5b80604052505050565b6000610c5a610965565b9050610c668282610c1f565b919050565b600067ffffffffffffffff821115610c8657610c85610bf0565b5b610c8f82610a22565b9050602081019050919050565b82818337600083830152505050565b6000610cbe610cb984610c6b565b610c50565b905082815260208101848484011115610cda57610cd9610beb565b5b610ce5848285610c9c565b509392505050565b600082601f830112610d0257610d01610be6565b5b8135610d12848260208601610cab565b91505092915050565b610d2481610a8c565b8114610d2f57600080fd5b50565b600081359050610d4181610d1b565b92915050565b600080600080600060a08688031215610d6357610d6261096f565b5b600086013567ffffffffffffffff811115610d8157610d80610974565b5b610d8d88828901610ced565b9550506020610d9e88828901610d32565b9450506040610daf8882890161099a565b9350506060610dc08882890161099a565b9250506080610dd18882890161099a565b9150509295509295909350565b6000602082019050610df36000830184610aad565b92915050565b7f496e76616c69642070726f706f73616c20494400000000000000000000000000600082015250565b6000610e2f6013836109e7565b9150610e3a82610df9565b602082019050919050565b60006020820190508181036000830152610e5e81610e22565b9050919050565b7f416c726561647920766f746564206f6e20746869732070726f706f73616c0000600082015250565b6000610e9b601e836109e7565b9150610ea682610e65565b602082019050919050565b60006020820190508181036000830152610eca81610e8e565b9050919050565b7f566f74696e6720706572696f642068617320656e646564000000000000000000600082015250565b6000610f076017836109e7565b9150610f1282610ed1565b602082019050919050565b60006020820190508181036000830152610f3681610efa565b9050919050565b7f4e487b7100000000000000000000000000000000000000000000000000000000600052601160045260246000fd5b6000610f7782610979565b91507fffffffffffffffffffffffffffffffffffffffffffffffffffffffffffffffff8203610fa957610fa8610f3d565b5b600182019050919050565b610fbd81610b4d565b82525050565b6000602082019050610fd86000830184610fb4565b92915050565b7f4e487b7100000000000000000000000000000000000000000000000000000000600052602260045260246000fd5b6000600282049050600182168061102557607f821691505b60208210810361103857611037610fde565b5b50919050565b7f566f74696e6720706572696f6420686173206e6f7420656e6465640000000000600082015250565b6000611074601b836109e7565b915061107f8261103e565b602082019050919050565b600060208201905081810360008301526110a381611067565b9050919050565b7f50726f706f73616c2068617320616c7265616479206265656e2065786563757460008201527f6564000000000000000000000000000000000000000000000000000000000000602082015250565b60006111066022836109e7565b9150611111826110aa565b604082019050919050565b60006020820190508181036000830152611135816110f9565b9050919050565b7f4e6f7420656e6f75676820766f74657320746f20706173730000000000000000600082015250565b60006111726018836109e7565b915061117d8261113c565b602082019050919050565b600060208201905081810360008301526111a181611165565b9050919050565b7f496e73756666696369656e7420636f6e74726163742062616c616e6365000000600082015250565b60006111de601d836109e7565b91506111e9826111a8565b602082019050919050565b6000602082019050818103600083015261120d816111d1565b9050919050565b7f416d6f756e74206d7573742062652067726561746572207468616e207a65726f600082015250565b600061124a6020836109e7565b915061125582611214565b602082019050919050565b600060208201905081810360008301526112798161123d565b9050919050565b7f566f74696e6720706572696f64206d757374206265206772656174657220746860008201527f616e207a65726f00000000000000000000000000000000000000000000000000602082015250565b60006112dc6027836109e7565b91506112e782611280565b604082019050919050565b6000602082019050818103600083015261130b816112cf565b9050919050565b7f4d696e696d756d20766f74657320746f2070617373206d75737420626520677260008201527f6561746572207468616e207a65726f0000000000000000000000000000000000602082015250565b600061136e602f836109e7565b915061137982611312565b604082019050919050565b6000602082019050818103600083015261139d81611361565b9050919050565b60006113af82610979565b91506113ba83610979565b92508282019050808211156113d2576113d1610f3d565b5b92915050565b60008190508160005260206000209050919050565b60006020601f8301049050919050565b600082821b905092915050565b60006008830261143a7fffffffffffffffffffffffffffffffffffffffffffffffffffffffffffffffff826113fd565b61144486836113fd565b95508019841693508086168417925050509392505050565b6000819050919050565b600061148161147c61147784610979565b61145c565b610979565b9050919050565b6000819050919050565b61149b83611466565b6114af6114a782611488565b84845461140a565b825550505050565b600090565b6114c46114b7565b6114cf818484611492565b505050565b5b818110156114f3576114e86000826114bc565b6001810190506114d5565b5050565b601f82111561153857611509816113d8565b611512846113ed565b81016020851015611521578190505b61153561152d856113ed565b8301826114d4565b50505b505050565b600082821c905092915050565b600061155b6000198460080261153d565b1980831691505092915050565b6000611574838361154a565b9150826002028217905092915050565b61158d826109dc565b67ffffffffffffffff8111156115a6576115a5610bf0565b5b6115b0825461100d565b6115bb8282856114f7565b600060209050601f8311600181146115ee57600084156115dc578287015190505b6115e68582611568565b86555061164e565b601f1984166115fc866113d8565b60005b82811015611624578489015182556001820191506020850194506020810190506115ff565b86831015611641578489015161163d601f89168261154a565b8355505b6001600288020188555050505b505050505050565b600061167161166c61166784610a6c565b61145c565b610a6c565b9050919050565b600061168382611656565b9050919050565b600061169582611678565b9050919050565b6116a58161168a565b82525050565b600060a08201905081810360008301526116c58188610a33565b90506116d4602083018761169c565b6116e16040830186610aad565b6116ee6060830185610aad565b6116fb6080830184610aad565b969550505050505056fea26469706673582212205b7d4fb3fed9f93c5f7ba4fc57e0152bd86453d538d0f405be2a3f0072b4898664736f6c63430008180033",
  "linkReferences": {},
  "deployedLinkReferences": {}
}